:020000040000FA
:10000000403300206D0200008102000083020000E6
:10001000850200008502000085020000000000004B
:10002000000000000000000000000000A502000029
:100030008502000000000000F9020000A524000075
:100040008502000085020000850200008502000094
:100050008502000085020000850200008502000084
:100060008502000085020000850200008502000074
:100070008502000085020000850200008502000064
:100080008502000085020000850200008502000054
:100090008502000085020000850200008502000044
:1000A0008502000085020000850200008502000034
:1000B0008502000085020000850200008502000024
:1000C0008502000085020000850200008502000014
:1000D0008502000085020000850200008502000004
:1000E0008502000000000000000000008502000002
:1000F00085020000850200008502000085020000E4
:1001000085020000850200008502000085020000D3
:1001100000000000000000008502000085020000D1
:1001200085020000850200008502000085020000B3
:1001300085020000850200008502000085020000A3
:1001400000000000000000000000000000000000AF
:100150008502000085020000850200008502000083
:10016000000000000000000000000000000000008F
:10017000000000000000000000000000000000007F
:10018000000000000000000000000000000000006F
:10019000000000000000000000000000000000005F
:1001A000000000000000000000000000000000004F
:1001B0008502000085020000850200008502000023
:1001C0008502000085020000850200008502000013
:1001D0008502000085020000850200008502000003
:1001E000850200008502000085020000000000007A
:1001F000000000008502000085020000850200006A
:1002000085020000850200000000000000000000E0
:1002100085020000850200008502000085020000C2
:1002200085020000850200008502000085020000B2
:1002300085020000850200008502000085020000A2
:100240008502000085020000850200008502000092
:100250008502000085020000850200008502000082
:100260008502000085020000850200004EF68850DD
:10027000CEF20000016841F47001016000F004B8A2
:10028000FEE7FEE7FEE70000DFF80CD000F0A4FA7E
:10029000004800476D1C0000403300200138FDD1AC
:1002A000704700002A4B19680868B0E8F04F80F3E7
:1002B0000988BFF36F8F4FF0000080F311887047FB
:1002C0000000000006480068006880F3088862B6F5
:1002D00061B6BFF34F8FBFF36F8F00DF00BF00BF6A
:1002E00008ED00E0DFF80C00016841F470010160E6
:1002F000704700BF88ED00E0EFF30980BFF36F8F18
:10030000134B1A681EF0100F08BF20ED108A20E969
:10031000F04F106008B44FF0A00080F31188BFF3D5
:100320004F8FBFF36F8F02F065F84FF0000080F33E
:10033000118808BC19680868B0E8F04F1EF0100F6B
:1003400008BFB0EC108A80F30988BFF36F8F704745
:10035000B4000020EFF305807047D2B201E000F84E
:10036000012B491EFBD270470022F6E710B5134659
:100370000A4604461946FFF7F0FF204610BD2DE956
:10038000FE4F804681EA0300C00F0C46009021F02A
:10039000004123F00045B8EB0200A94105D24046D8
:1003A000214690461C460B46024623F0004010436F
:1003B00047D0270DC7F30A00C3F30A510290401A31
:1003C000019040286BDAC3F3130040F4801B0098BF
:1003D000924620B10023D2EB030A63EB0B0B01988A
:1003E0005946C0F14002504600F030F906460D462D
:1003F00050465946019A00F048F910EB0800614157
:10040000002487EA115284EAE7731A4340D0009A25
:1004100062B3019A012A4FEA075215DC001B61EB17
:1004200002014FF0004202EA0752CDE90042001CEF
:1004300041F5801132462B4600F07FF903B0BDE84C
:10044000F08F40462146F9E7001B61EB0201001CDA
:1004500041F5801300185B412018A2F5001747EB07
:10046000030140EAD570B6196D4111E06D084FEAFD
:10047000360645EAC0754FEA0752001B61EB0201E0
:10048000001C41F5801149084FEA30000019514124
:1004900032462B4603B0BDE8F04F00F03FB900985C
:1004A000012240000023D0EB020263EBE0730098CE
:1004B00021464FEAE074B8EB000061EB0401E9E784
:1004C00083F000435BE781F0004158E72DE9FE4FE0
:1004D00081EA030404F0004421F0004100944FF04D
:1004E000000B23F0004350EA01045ED052EA0304FB
:1004F0005BD0C3F30A54C1F30A552C44A4F2F3347D
:100500000194A0FB0254C1F3130141F48011C3F321
:10051000130343F4801301FB024400FB034E840ADF
:10052000970A44EA815447EA8357A4FB0768029577
:100530008D0A05FB07854FEA932C04FB0C54270515
:10054000029D4FEA065847EA1637B5EB08056EEBF1
:10055000070C870E920E47EA811742EA8312A7FB27
:100560000201B6EB0B0164EB00042B0D43EA0C33E4
:100570005E1844EB1C50DA465146E7FB0201C5F316
:1005800013044FEA0B3343EA14534FEA0432019C3D
:1005900043EA0603A4F10C040294009CCDE900B4E4
:1005A00000F0CBF803B0BDE8F08F00200146F9E77A
:1005B00070B5C1F30A5201F000450024C1F31301E4
:1005C00040F2FF3341F480119A4201DA002070BDFD
:1005D00040F233439A42A2F2334203DC524200F02B
:1005E00044F800E090402C43F1D0404270BD00F050
:1005F000004230F000400AD0C10D01F56071C0F337
:10060000160042EA0151C20840071143704700201A
:100610000146704701F0004330B421F0004150EA38
:10062000010206D00A0DA2F56072C1F31301002A7F
:1006300002DC30BC00207047440F44EAC104C10012
:10064000E01830BC00EBC25000F031B8202A04DBC7
:10065000203A00FA02F1002070479140C2F12003D5
:1006600020FA03F3194390407047202A04DB203A14
:1006700021FA02F00021704721FA02F3D040C2F1C2
:1006800020029140084319467047202A06DBCB1709
:10069000203A41FA02F043EAE07306E041FA02F33D
:1006A000D040C2F12002914008431946704700290A
:1006B000A8BF7047401C490008BF20F001007047E8
:1006C00010B4B0FA80FC00FA0CF050EA010404BF48
:1006D00010BC704749B1CCF1200421FA04F411FA9E
:1006E0000CF118BF012121430843A3EB0C01CB1DE2
:1006F0004FEA00614FEA102042BF002010BC704753
:1007000000EBC35010440029A4BF10BC7047401C2C
:10071000490008BF20F0010010BC704710B5141E3E
:1007200073F1000408DA401C41F1000192185B41AA
:100730001A4301D120F0010010BD2DE9F04D924681
:100740009B4611B1B1FA81F202E0B0FA80F2203298
:100750009046FFF77BFF04460F4640EA0A0041EA55
:100760000B0153465A46084313D0114653EA010081
:1007700019D0C8F140025046FFF777FF05460E46F4
:10078000504659464246FFF761FF084305D0012015
:1007900004E020463946BDE8F08D0020054346EAD6
:1007A000E0762C4337430A986305E40AA0EB08007F
:1007B0000022FD0A44EA47540A3002D500200146CF
:1007C000E9E7010510196941DDE9084500196941AA
:1007D000BDE8F04DA2E70000064C074D06E0E068DA
:1007E00040F0010394E8070098471034AC42F6D378
:1007F000FFF74EFD002E0000202E000070B58C1873
:1008000010F8015B15F0070301D110F8013B2A1124
:1008100006D110F8012B03E010F8016B01F8016B11
:100820005B1EF9D12B0705D40023521E0DD401F80D
:10083000013BFAE710F8013BCB1A921C03E013F8D6
:10084000015B01F8015B521EF9D5A142D8D300200B
:1008500070BD00001CB50020194C009001460190AD
:10086000204600F054F86A460021204600F09AF82D
:100870009DED000AB8EE400A10EE100AFFF7B7FE31
:100880009FED101B53EC112BFFF720FE9FED0F1B6C
:1008900053EC112BFFF714FE9FED0E1B53EC112BA5
:1008A000FFF70EFEFFF784FE0C4900B200284880D7
:1008B00002DA00F5B4704880012008701CBD000009
:1008C00000800340000000000080B63F00000000F0
:1008D000008058400000000000002440300000204C
:1008E000C1F30313C0F8C43F6FF00F0301F00F0111
:1008F00003EB02121143C0F8C81F704700224908D9
:1009000001E04908521C0029FBD102637047012213
:100910008A40C260704701228A40C26081681143E8
:100920008160704770B5154601F0F6F80446294617
:1009300000F086FB2046BDE8704000F041BB0A0C89
:1009400001F00F031204012199400A43816A0A430E
:1009500082627047826B22F003020A43826370470F
:10096000F0B5466989000F258D4002F00F04AE43B3
:1009700004FA01F73E434661066A03F00303AE43FF
:100980008B401E430662A11F03290AD8C369E100F8
:10099000302430398C4002F03002A3438A401343A4
:1009A000C361F0BD00EB41110020403102E08B68D3
:1009B000401C08C2CB68DB0501D40828F7D3704778
:1009C000026801238B401A430260704730B500EB88
:1009D0004110910050F8404F0F228A4003F00F055C
:1009E00094438D402C4304608469C3F303259443EE
:1009F0008D402C4384614468C3F3031594438D40B8
:100A00002C434460C469C3F3035594438D402C4385
:100A1000C46113F4702F4FF001050AD04469944368
:100A2000C3F302428A402243426102698D402A4355
:100A300002E002698D40AA43026130BD10B5264C28
:100A4000204600F025FE204600F036FE0028FAD0B1
:100A5000224C204600F01CFE204600F02DFE00280F
:100A6000FAD00C211E4800F0DAF91E4C0122712147
:100A70002046FFF735FF00212046FFF76BFF0023DC
:100A80001A4619462046FFF76BFF00231A461946FF
:100A90002046FFF79BFF6123012200212046FFF73C
:100AA00095FF40212046FFF729FF00212046FFF750
:100AB00087FF0D4A00212046FFF734FF0021204622
:100AC000FFF729FF4021172000F0A8FABDE81040E9
:100AD000172000F075BA0000003800F0040800F09C
:100AE00000400240008003405508000000210148FA
:100AF000FFF725BF0080034010B54FF08074A06F52
:100B000000688047A06F00698047606CC16D044831
:100B10008847606C016BBDE8104001200847000069
:100B20004005C00170B51A4901202DED028BB1F9C5
:100B3000001000EE101AB8EEC00A00F073F89FED36
:100B4000158A0220B0EE480A00F06CF80320B0EEDF
:100B5000480A00F067F80420B0EE480A00F062F896
:100B6000042000F01FF80C4C0C4D0D4E607000205E
:100B7000207006E0695C304600F03EFE2078401CA4
:100B80002070C1B260788142F4D3BDEC028B70BD9D
:100B90003200002000000000080100201431002075
:100BA00000C000400A2839D890B31D4924220B28E0
:100BB0000A7033D2DFE800F032060A0E12161A1E4F
:100BC00022272D0005204871062070470920487211
:100BD0000A2070470D2048730E207047112048747A
:100BE0001220704715204875162070471920487646
:100BF0001A2070471D2048771E207047212081F859
:100C0000210022207047252081F8250026207047EA
:100C100004E0292081F829002A20F8E70020F6E7DF
:100C20001431002001B50A282DED020B12D800283E
:100C300010D00B280ED2DFE800F00D06080E1012BF
:100C40001416181A1C00012200E005220A49684601
:100C500000F014F80EBD0922F8E70D22F6E7112284
:100C6000F4E71522F2E71922F0E71D22EEE7212230
:100C7000ECE72522EAE700001431002003788B54CA
:100C8000114443784B7082788A70C078C87070477E
:100C9000D307D0F8003401D00B4300E08B43C0F8F9
:100CA00000349207D0F8202401D50A4300E08A439B
:100CB000C0F8202470472DE9F04300244FF00108CC
:100CC0004FF00309C2F3411C08FA04F50D420ED09F
:100CD000D0F8C47F650009FA05F6B743C0F8C47FB1
:100CE000D0F8C46F0CFA05F52E43C0F8C46F641C2D
:100CF000E4B2082CE8D3D407D0F8004501D00C4367
:100D000000E08C43C0F800459407D0F8044501D5B5
:100D10000C4300E08C43C0F804455407D0F8084564
:100D200001D50C4300E08C43C0F808451407D0F807
:100D3000184501D50C4300E08C43C0F81845D20695
:100D4000D0F83C2501D50A4300E08A43C0F83C2591
:100D5000DA07D0F80C2501D00A4300E08A43C0F836
:100D60000C259A07D0F8102501D50A4300E08A43E4
:100D7000C0F810255A07D0F8142501D50A4300E021
:100D80008A43C0F814251A07D0F81C2501D50A4358
:100D900000E08A43C0F81C259A05D0F8442501D507
:100DA0000A4300E08A43C0F84425D0F8402513F4F4
:100DB000407F01D00A4300E08A43C0F84025D0F8C4
:100DC000282523B18A43C0F82825BDE8F0830A43CB
:100DD000F9E700000E4A10B5D36EC0F307410122B7
:100DE0008A4013420B4A03D002EBC101496801E07B
:100DF00052F83110020AD1F82C350F24944000F03B
:100E00000F00A34390400343C1F82C3510BD0000F0
:100E100000E00F407C29000050F82100704730B5F9
:100E20000C4605460022FFF733FF21462846BDE861
:100E3000304000230122FFF73EBF30B50C46054687
:100E40000022FFF725FF21462846BDE83040082351
:100E50000122FFF730BF30B50C4605460222FFF7EE
:100E600017FF21462846BDE8304008230122FFF73E
:100E700022BF30B50C4605460222FFF709FF214686
:100E80002846BDE830400A230122FFF714BF30B5E1
:100E90000C4605460222FFF7FBFE21462846BDE828
:100EA000304008230122FFF706BF40F82120704799
:100EB00070B50C4601780025702901D0257007E037
:100EC00040784C2807D022A000F024FD012020709B
:100ED0002548458070BD254E062211463046FFF755
:100EE000E4FF00F02DFB40F6B834B0FBF4F04FF413
:100EF00096714843FFF7D2F900220E213046FFF7E2
:100F0000D4FF00F01DFBB0FBF4F04FF496714843A2
:100F1000FFF7C4F90C220E213046FFF7C6FF00F0A0
:100F20000FFBB0FBF4F04FF496714843FFF7B6F9AE
:100F300000220E213046FFF7B8FF00F001FBB0FBA6
:100F4000F4F04FF496714843FFF7A8F9C0E70000AA
:100F50004572726F72214E6F207468697320636FDF
:100F60006D6D616E64210000B000002000500240F1
:100F700010B50F4800F08CFB0120FFF72BFF40F26B
:100F80000140FFF727FF0B4800F082FB05210A48CC
:100F900000F03CFC03214FF04020FFF778FFBDE854
:100FA0001040064A4FF4E131002000F085BC0000FB
:100FB000000800F0001800F000C000400024F40019
:100FC0001449042812D0052814D0062817D00F2859
:100FD00019D0102809D3103800F01F0201219140C8
:100FE0000D4A400952F8200001607047086840F43B
:100FF000803002E0086840F40030086070470868FC
:1010000040F48020F9E74FF0E020016941F002014F
:101010000161704724ED00E0C82A0000074A10B5BE
:1010200020F00303D25813688007C00EFF248440C9
:10103000A34381401943116010BD00002C2A000019
:1010400070B5094D2A68094CA24209D02B680022CC
:1010500053F8226044F82260521C9B2AF8D32C607B
:1010600044F8201070BD000008ED00E000040020EE
:1010700010B50B4C204600F00BFB204600F01CFB8B
:101080000028FAD0074C10212046FFF7D6FE204654
:101090000A230122BDE810401021FFF70CBE00001A
:1010A000050800F00050024010B54FF08074606CED
:1010B000816904488847206A0E21C26BBDE8104050
:1010C00001481047050800F00050024070B500EEDE
:1010D000101A00EE900A244CB8EE400AF8EE600AAE
:1010E0002DED028B214D30EEC08A84EC020A84ED96
:1010F000028AA868FFF77BFA9FED1D1B53EC112BAA
:10110000FFF7E4F9FFF786FA064618EE100AFFF734
:101110006EFA9FED191B53EC112BFFF7D7F941EC39
:10112000180B3046FFF763FA53EC182BFFF727F93B
:10113000FFF770FA00EE900AC5ED020A95ED030A7A
:1011400030EEC00A84ED050AC5ED030A94ED081AD5
:1011500021EE000A94ED061A01EE200A84ED090A38
:10116000BDEC028B70BD0000940600202000002022
:101170009A9999999999E93F9A9999999999C93F11
:101180000C489FED0B0A80ED000A80ED010A80ED0E
:10119000020A80ED030A80ED040A80ED050A80ED65
:1011A000060A80ED070A80ED080A80ED090A7047FB
:1011B0000000000094060020002801DB0120704799
:1011C0000020704708440168074B19401143016033
:1011D000910703D5B0210162090103E08C2101626E
:1011E00040F60C01416270470100F8FF425842F09E
:1011F00001024250704708440168890702D551082E
:1012000001617047521E02617047000070B540F6E0
:10121000C411884202DC4942884201DA084601E0F2
:1012200000B901200446FFF7C7FF0D4D30B122463B
:101230004021284600F01EF801220AE02046FFF770
:10124000BBFF00280BD101224021284600F012F8F4
:1012500062422846BDE87040412100F00BB870BDE5
:1012600000800240002A826801D00A4300E08A43DD
:101270008260704721F03F03184403689B0700D544
:10128000520803699A1AC90701D0C2617047826186
:101290007047000070B54FF4801000F0EFF9274C54
:1012A000204600F0F5F9601C00F0F2F9204600F04D
:1012B00003FA0028FAD0224800F0EAF92148FFF7A3
:1012C00089FD2148FFF786FDC0212048FFF7C3FDB7
:1012D0001F4C022240212046FFF774FF022280218A
:1012E0002046FFF76FFF40F6C4152A4640212046EE
:1012F000FFF781FF2A4680212046FFF77CFF01226D
:1013000011462046FFF7AEFF012202212046FFF7DB
:10131000A9FF40212046FFF769FF80212046FFF703
:1013200065FF012240212046FFF7A4FF2046BDE8CB
:10133000704001224121FFF79DBF0000004000F0F6
:10134000010800F004180100041C010000500040D6
:1013500000800240002000F09BBD036823F01E03C4
:101360000B430360C26070474068800702D54FF0AE
:10137000FF30704701207047016841F001010160B2
:10138000704781627047026A0A430262704770B513
:101390000D4600F0E9FB04462946FFF751FE2046C2
:1013A000BDE87040FFF70CBE09B1806A7047406A23
:1013B000704780687047036823F4E0730B43036051
:1013C000521E02617047016841F0200101607047C0
:1013D000C0697047014800F003B8000040000020D9
:1013E00010B50446006800F053F9206800F064F975
:1013F0000028FAD0206900F04BF9206900F05CF970
:101400000028FAD02149606988420CD1207E00066C
:1014100009D520481E490160011D0A6842F080027A
:101420000A6000210160E069FFF7D4FC206AFFF741
:10143000D1FC217E6069FFF71CFDA06840F21762B5
:1014400040F008016068FFF788FF6068FFF794FFCD
:1014500000F076F84FF47A71B0FBF1F000EB800009
:10146000420000216068FFF7A6FF6068FFF7ABFF4E
:1014700009496068FFF78BFF06216068FFF783FF6B
:10148000E068BDE81040FFF79BBD00000070004021
:101490004B434F4C207500405513000010B50146DA
:1014A000024800F0A9F9002010BD000000D0004063
:1014B00010B5FF20FFF7F2FFFF20FFF7EFFFFF203F
:1014C000FFF7ECFF002010BD4FF47A712DE9F041D9
:1014D000B0FBF1F4B0FBF1F201FB12006421B0FBB0
:1014E000F1F5B0FBF1F201FB12000A21B0FBF1F2C1
:1014F000B0FBF1F601FB12072220FFF7CFFF3034DB
:10150000E0B2FFF7CBFF3035E8B2FFF7C7FF303668
:10151000F0B2FFF7C3FF3037F8B2FFF7BFFF22206A
:10152000FFF7BCFF0020BDE8F08170B50546002440
:1015300002E0FFF7B3FF641C285D0028F9D170BDFD
:10154000F0B5454E326E316F002902DA01F07000BD
:1015500001E002F03000202812D003DC40B1102856
:1015600004D10BE030280DD070280ED00020F0BD43
:101570007C203A4B00EA1210185808E0384806E080
:10158000384804E047F2305001E04FF400404FF09B
:10159000FF33002901DA0C0505D501F0004402F4FF
:1015A00000652C4336D1D6F86041D6F8645105F079
:1015B0001F07C5F304256D1C7F1C17FB05F56D0087
:1015C000B0FBF5F0C4F309054543C4F38924604337
:1015D000346905EB902042F4800204F47044B4F5C1
:1015E000804F12D006DCB4F5005F0AD0B4F5405F3E
:1015F00010D108E0B4F5E04F09D0B4F5104F09D18F
:1016000007E0194B06E0194B04E0194B02E0194BB7
:1016100000E0194B540217D5002919DA4C0007D500
:101620000C050BD501F0004402F40062144305D010
:10163000C1F3C551491CB0FBF1F005E04200C1F314
:101640008650401CB2FBF0F0834290D21846F0BDA9
:10165000C2F3C351EEE7000000E00F40202B000072
:101660000024F40000093D0000B4C40480F0FA0234
:10167000005A620240787D01002D310103490A6E53
:1016800022F4F01202430A667047000000E00F40A7
:10169000C0F307230749C0B2194401F07043C1F3F6
:1016A000130143EA411141EA800040F00070012239
:1016B0000260704700E60F40C0F307220849C0B23D
:1016C000114401F07042C1F3130142EA411141EAB1
:1016D000800040F000700068002800D001207047B2
:1016E00000EA0F402DE9F041A020EFF3118580F3CF
:1016F0001188BFF34F8FBFF36F8F1B4F0121384607
:1017000000F0D5F80146384600F0BEF80024174E28
:101710001CE0384600F068F8C1B27088020415D4A5
:10172000420407D50A2910D140F4004070800120FE
:1017300030700BE00D2912D0C0F30D020C4B401C91
:1017400080B299547080C72800D97480384600F060
:1017500058F80028DDD185F31188BDE8F08140F408
:1017600080407080F2E7000000D00040B000002010
:10177000BC06002010B504461448FFF789FF144842
:10178000FFF786FF1348FFF725FB1348FFF722FBFF
:1017900030211248FFF77BFBFFF7D2FE2246104CA8
:1017A00001466023204600F034F8E0211620FFF7C0
:1017B00035FC0C49204600F06DF81620FFF700FCC0
:1017C0002046BDE81040502100F060B8020800F04B
:1017D000011800F002100200021402000060004034
:1017E00000D00040E51600008169C90601D40068F8
:1017F00070474FF0FF30704782699206FCD4016059
:101800007047806940F30010401C7047C0F8C81F43
:10181000704770B515460E46044600F01EF8206B62
:10182000B6EB051F04D240F0200020636D0802E0F3
:1018300020F020002063F000B0FBF5F0401C4008D1
:101840008109616200F03F00A062E3620020A061B4
:101850002046BDE8704000F00DB881690907FCD44E
:10186000C16A21F01001C162016B40F20132914363
:1018700001637047C16A41F01001C162016B40F21F
:10188000013211430163704741647047826B0A4320
:101890008263704770B50D4600F088F9044629460A
:1018A000FFF7CEFB2046BDE87040FFF789BB09B1CA
:1018B000006C7047C06B70472DE9F0474FF08075A2
:1018C0008946696C114F04460969904657F824000F
:1018D0008847002817D0A7F10C000D4E50F82400BF
:1018E0007060696C57F824008969884768696023CB
:1018F0004A46446941467068A0476869C169706892
:10190000BDE8F0470847BDE8F0870000D827000091
:10191000A80000200FB410B503A9029800F004F845
:1019200010BC5DF814FB00002DE9F04F85B00E46A9
:1019300005464FF02D0B0DF1040AC0E0002400E035
:10194000641C285D252801D00028F9D121462846AD
:1019500000F0C4F825442878252873D100242027D6
:101960006D1C15F8010B38282CD014DC332829D035
:1019700008DC252867D0302824D0312822D032280E
:101980001DD11FE034281DD035281BD0362819D092
:10199000372814D116E0692825D008DC392811D061
:1019A000582846D0632819D0642808D11BE0702835
:1019B0003FD0732823D0752836D0782839D0052118
:1019C00042A07AE015F8010C302801D104B9302783
:1019D00004EB8401490030394418C2E701CE00907D
:1019E0000121684669E001CE00210090002803DA59
:1019F00040420123009000E000230A221EE001CEB5
:101A0000002700E07F1CC15D0029FBD1394600F0B2
:101A100065F8BC4253D9E41B03E001212DA000F07E
:101A20005DF8641E4BD3F8E701CE00210A22009036
:101A300003E001CE00211022009000230120DDF8F8
:101A4000009003E03BE036E06046641E00FB02FCD1
:101A5000CC4503D8BCFBF2F88045F5D033B1641E09
:101A6000302F03D10AF801B00023491CA4F1020C65
:101A7000BCF10E0F07D2641E05D0D4460CF80170DD
:101A8000491C641EFAD113B10AF801B0491C124F67
:101A9000544670B1B9FBF0F3B3FBF2FC02FB1C330C
:101AA000D7F800C0B0FBF2F01CF803306354491CB7
:101AB000EFE701A801E00121681E00F00FF8287887
:101AC00000287FF43BAF05B0BDE8F08F4552524F80
:101AD0005200000020000000C82700002DE9F0415E
:101AE0008846054600244FF080760A4F0DE0285DB9
:101AF0000A2804D170690D210268786890477069DE
:101B0000295D026878689047641C4445EFD32046FD
:101B1000BDE8F081A8000020F0B50E4C23680E4D02
:101B20000E4F2B400E4E01F11E02BB4206D1B042B9
:101B300001D11046F0BD01F14000F0BD2368094C11
:101B40002B40A34204D1B042F3D001F13E00F0BDDE
:101B50000020F0BD00E00F400000FF700000051005
:101B60000080034000000A1030B50B4A13680B498F
:101B70000B4D0B400B4CAB4205D1A04201D11D20B7
:101B800030BD362030BD12680A4007498A4201D173
:101B9000A042F4D0002030BD00E00F400000FF70F4
:101BA0000000051000C0024000000A100D4910B5E9
:101BB0000B4A096808230C4C21400C4CA14200D16F
:101BC0004032002152F83140844203D102EBC1007F
:101BD000406810BD491C9942F4D3002010BD00009C
:101BE0006C2D000000E00F400000FF7000000A10A4
:101BF00002E008C8121F08C1002AFAD170477047D6
:101C0000002001E001C1121F002AFBD17047000033
:101C100070B5144D10212846FFF7FEF8124C2070C5
:101C2000C0061ED4FFF78CFC40F6B831B0FBF1F0D3
:101C300000EB80008000FEF731FB10212846FFF703
:101C4000EBF82070C0060CD46068401C606003286C
:101C500001DD0020606010212846FFF7DDF8002834
:101C6000F9D070BD00500240340000201FB5FEF7CF
:101C700043FFFFF719FAFEF7E1FEFFF779F9FFF7E7
:101C8000F7F9FFF707FBFFF7A5FB4FF41650FFF737
:101C900071FDFFF775FA0AA0FFF73CFE0122002054
:101CA00000920E49CDE901100346039080220CA159
:101CB0000E4800F00DFC00F06BFB04B0002010BDDE
:101CC0000A0A546869732069732061206164632083
:101CD0006578616D706C65210A0A000000000020C3
:101CE00073746172745F7461736B0000F11E0000A5
:101CF00070B50B4D044628684460E8682968844242
:101D000005D2686BBDE87040091D00F05FBA286B12
:101D1000091D00F05BFAA86A844200D2AC6270BD73
:101D2000B400002070B5134E134D1FE000F05AFBB5
:101D3000306820B1002400F0EFFCBCB901E00124C0
:101D4000F9E700F067FAF068C468201D00F01DFA9A
:101D5000A868401EA8606868401E686000F068FAC5
:101D6000206B00F06FFA204600F06CFA68680028DB
:101D7000DCD170BDEC080020B4000020FFF7D2FFDA
:101D8000FCE700000648016B096829B1016BC968CE
:101D9000C9684968816270474FF0FF31FAE7000077
:101DA000B4000020A02080F31188BFF34F8FBFF351
:101DB0006F8FFEE72DE9F0410446002500F012FB8D
:101DC000274E06F10801706801F1080368B925483B
:101DD000002720F00700C1E9000742F2F872C3E9CA
:101DE0000072C0E90032012070603CB10834600725
:101DF00004D004F00700C0F108000444601E42F261
:101E0000F772904227D2164A0968083201E00A4662
:101E100001464868A04202D208680028F7D19942DA
:101E200019D015680868106048680835001B10282C
:101E30000DD90B1958600A484C6008305C6800E006
:101E4000104602685768A742FAD31A6003604868D0
:101E50003168081A306000F05FFC2846BDE8F08168
:101E6000EC0000201C09002010B5031F4FF0807407
:101E70001C601B1F1960191F044B0B6014390A608A
:101E8000091F6FF0020244380A6010BDA51D000052
:101E900070B500EB800101EBC001144800EB810438
:101EA00001216068FFF780FA054629466068FFF760
:101EB00068FAA80708D56068FFF78AFA06466068DE
:101EC000FFF752FA4643A662680702D5606A4042AD
:101ED0006062064D2D1F2878002805D06068FFF746
:101EE00068FAE0620020287070BD00004000002009
:101EF0001FB500F08FF90421002400912948CDE995
:101F000001042346802228A12A48039400F0E0FA25
:101F1000244805210091001DCDE901040023802201
:101F200025A12848039400F0D3FA1E48032100910C
:101F3000001FCDE901040023802223A1254803943A
:101F400000F0C6FA1748062100910830CDE90104D7
:101F50000023802220A12348039400F0B9FA1148FD
:101F6000072100910C30CDE90104002380221EA13D
:101F70002048039400F0ACFA0A4808210091103080
:101F8000CDE90104002380221BA11E48039400F028
:101F90009FFA04480838006800F0B2F9BDE81F4015
:101FA00000F046B9080000207461736B5F626C69D1
:101FB0006E6B7900512000007461736B5F61646324
:101FC00000000000092000007461736B5F6B65798D
:101FD00000000000052100007461736B5F70776D75
:101FE000000000005D2100007461736B5F71656922
:101FF00000000000792100007461736B5F6D6169FE
:102000006E0000001D2100001CB500F025FB0C4CEB
:102010000090FEF76BFD01A90A48FEF749FFFEF7A5
:1020200081FD09A0FFF781FA208880B2FFF74CFA02
:10203000FFF73EFA0A21684600F02AF9E9E70000B6
:1020400032000020BC06002074312E7478743D00EC
:1020500008B500F001FB294D294C0090296831B1E9
:10206000012912D0022925D003291ED130E00221F6
:102070002046FEF7D1FEC0F10200C2B20221204686
:10208000FEF713FF00220C210CE004212046FEF78E
:10209000C3FEC0F10400C2B204212046FEF705FFD2
:1020A00000220A212046FEF700FF6421684600F066
:1020B000EFF8D3E708212046FEF7AEFEC0F1080096
:1020C000C2B208212046FEF7F0FE00220621E9E711
:1020D00002212046FEF7A0FEC0F1020604212046A0
:1020E000FEF79AFEC0F104000643F2B20621204634
:1020F000FEF7DBFE00220821D4E7000038000020B4
:102100000050024008B500F0A7FA0090FFF780FDEC
:102110000A21684600F0BCF8F8E7000008B500F0B6
:102120009BFA0B4C0B4D0C4E00902068002809D8F0
:102130002888002180B2FEF7C9FFBDEEC00A10EE6C
:10214000100A30800A21684600F0A2F8EDE700008E
:1021500038000020320000201C00002008B500F0EC
:102160007BFA4FF4FA6400902046FFF74FF80A21FB
:10217000684600F08DF8F7E708B500F06DFA0090BA
:102180000A21684600F084F8FAE7D0E901320169D3
:102190009A60D0E901235A604A68824201D182687C
:1021A0004A60002202610868401E08607047FEE72E
:1021B00000F108014FF0FF32C0E90112C160016176
:1021C00000210160704700210161704730B50C6843
:1021D000621C02D000F1080202E0026904E01A4623
:1021E00053681D68A542FAD953684B6099608A60AC
:1021F000516008610168491C016030BD42684A6055
:1022000093688B6093685960916008610168491C0C
:1022100001607047A02080F31188BFF34F8FBFF398
:102220006F8F02480168491C01607047040100205B
:1022300003490868401E086001D180F31188704787
:102240000401002010B5002817D0A0F1080400F008
:10225000C9F80A49606800E011460A685368834279
:10226000FAD3064822600C6008386168026811449D
:102270000160BDE8104000F04FBA10BDF40000202E
:102280004FF0E0204CF24F3141610721016170476E
:1022900070B50C460646002200F0A4F8164DE8681A
:1022A00033681C44834202D9A34202D804E0A3420B
:1022B00001D8844200D9012234607AB12868001D17
:1022C000FFF763FF38B9286890F82C100120884088
:1022D0002969814329612046FFF70AFD00F01CFAB5
:1022E000002807D105494FF080500860BFF34F8F99
:1022F000BFF36F8F70BD0000B400002004ED00E05C
:1023000070B50446FFF786FF1D4D04B92C68201DEB
:10231000FFF73BFF58B9E06A1A4A00EB800152F818
:10232000211021B901218140286988432861A06AD0
:1023300018B104F11800FFF728FF211D1248FFF71C
:102340005DFF6868401C6860686A401C6862FFF74F
:102350006FFF686900280AD02868844208D10B49B9
:102360004FF080500860BFF34F8FBFF36F8F70BD89
:10237000FFF750FFFFF706FDBDE87040FFF758BFBD
:10238000B400002084070020EC08002004ED00E0E9
:102390001FB500240094019402942346C8220DA185
:1023A0000E48039400F094F8012811D1A02080F386
:1023B0001188BFF34F8FBFF36F8F09484FF0FF3184
:1023C000816201214161C460BDE81F4000F04AB84C
:1023D0001FBD000049444C45000000007D1D000069
:1023E000B40000200248C16A491CC1627047000065
:1023F000B400002010B5194CE06A10B10120E06172
:1024000010BD0020E06120684FF0A532006B01682C
:10241000914208D14168914205D18168914202D12F
:10242000C068904204D0216820683431FFF7BFFEB5
:1024300020690B49B0FA80F0C0F11F0000EB80006A
:1024400001EB800000F10802416849684160914257
:1024500001D149684160C868206010BDB400002007
:10246000840700200C4810B5016841F46001016048
:10247000016841F060410160FFF702FF0749002059
:102480000860FDF72FFF0648016841F040410160F8
:10249000FDF718FF002010BD20ED00E00401002032
:1024A00034EF00E010B5A02080F31188BFF34F8F08
:1024B000BFF36F8F00F0D6F818B104494FF0805089
:1024C0000860002080F3118810BD000004ED00E0DA
:1024D0002DE9FF5F8A46DDE90F9091000E9E9B4635
:1024E0001546884610B90846FFF764FC07000FD070
:1024F0006820FFF75FFC040006D0A522414638465D
:102500002763FDF72AFF04E03846FFF79BFE00E053
:102510000024002C7ED06FF0030000EB8500216BBF
:102520003546084420F007085146002022180B5C6D
:1025300082F834300A5C12B1401C1928F6D3002707
:1025400084F84C700F2D00D30E25E562C4E91657B0
:10255000201DFFF738FE04F11800FFF734FE246158
:10256000C5F10F016462A161276684F864705A4660
:1025700040460099FFF778FC2060B9F1000F01D0C8
:10258000C9F80040FFF746FE2F4FB868401CB860FE
:102590003868DFF8B88010B1786930B32AE03C6061
:1025A000B868012826D1002505EB850108EB8100DC
:1025B000FFF7FEFD6D1C0F2DF6D32548FFF7F8FD44
:1025C00023481430FFF7F4FD21482830FFF7F0FDD1
:1025D0001F483C30FFF7ECFD1D485030FFF7E8FD89
:1025E0001B4838631430786304E03868C06AB0422E
:1025F00000D83C60786A0121401C78622065E06A5E
:102600003A6981401143396100EB800108EB810098
:10261000211D00E015E0FFF7F1FD0124FFF708FEA2
:10262000786950B13868C06AB04206D209492007BB
:102630000860BFF34F8FBFF36F8F04B02046BDE833
:10264000F09F4FF0FF34F8E7B4000020840700202B
:10265000B008002004ED00E00148C06870470000A9
:10266000B40000202DE9F041294F0025F86A40B15F
:10267000B869401CB861F86900B101252846BDE879
:10268000F081F868401CF860FE6846B9386B796BD9
:1026900039637863386A401C3862FFF773FBB86AA5
:1026A000DFF87080864209D3386B006880B1386BE0
:1026B000C068C468606886420DD2B8623868C06A73
:1026C00000EB800158F821000128D4D90125D2E778
:1026D0004FF0FF30F1E7201DFFF757FDA06A18B15A
:1026E00004F11800FFF751FDE06A01213A698140C9
:1026F0001143396100EB800108EB8100211DFFF7D8
:102700007DFDE06A3968C96A8842CDD30125CBE7EF
:10271000B4000020840700202DE9F0470027FFF7D0
:1027200079FD264DE86A401EE862E86AF0BBA868B9
:1027300023490126D0B3A1F5AA798846D8F800101C
:10274000E9B1D8F80C00C46804F11800FFF71DFDCA
:10275000201DFFF71AFDE06A2A6906FA00F111430D
:10276000296100EB800109EB8100211DFFF746FD87
:10277000E06A2968C96A8842E0D3EE61DEE7A869A9
:1027800038B909E0FFF76EFF00B1EE61A869401E9D
:10279000A861A8690028F5D1E869012809D109498B
:1027A000012700070860BFF34F8F00E001E0BFF38F
:1027B0006F8FFFF73DFD3846BDE8F087B40000207D
:1027C000D808002004ED00E0EC2D000000C000401F
:1027D00000D0004000E00040001800F0011800F0B8
:1027E000021800F00040004010000000008005408A
:1027F0001000000000500040110000000090054053
:1028000011000000006000401200000000A0054020
:1028100012000000007000401300000000B00540EE
:1028200013000000004002401400000000C00540FA
:1028300014000000005002402E00000000D00540AF
:102840002E000000006002402F00000000E0054064
:102850002F000000007002403000000000F0054032
:102860003000000000D00340460000000000064099
:10287000460000000010064047000000002006400F
:1028800048000000003006407F0000000040064085
:1028900080000000005006408400000000600640F8
:1028A0008C00000000400040100000000080054047
:1028B0001000000000500040110000000090054092
:1028C00011000000006000401200000000A0054060
:1028D00012000000007000401300000000B005402E
:1028E00013000000004002401400000000C005403A
:1028F00014000000005002402E00000000D00540EF
:102900002E000000006002402F00000000E00540A3
:102910002F000000007002403000000000F0054071
:102920003000000000D003404300000000000640DB
:102930004300000000100640440000000020064054
:1029400045000000003006405800000000400640EE
:1029500059000000005006405C0000000060064086
:1029600064000000007006406C000000008006401B
:102970006D000000009006407F0000000040004015
:10298000008005400050004000900540006000407D
:1029900000A005400070004000B00540004002402B
:1029A00000C005400050024000D0054000600240D9
:1029B00000E005400070024000F0054000D00340F8
:1029C00000000640001006400010064000200640AF
:1029D000002006400030064000300640004006401F
:1029E000004006400050064000500640006006408F
:1029F00000600640007006400070064000800640FF
:102A0000008006400090064000900640000700004D
:102A100000060000000500000004000000030000A4
:102A200000020000000100000000000000000000A3
:102A300018ED00E01CED00E020ED00E000E400E017
:102A400004E400E008E400E00CE400E010E400E04E
:102A500014E400E018E400E01CE400E020E400E0FE
:102A600024E400E028E400E02CE400E030E400E0AE
:102A700034E400E038E400E03CE400E040E400E05E
:102A800044E400E048E400E04CE400E050E400E00E
:102A900054E400E058E400E05CE400E060E400E0BE
:102AA00064E400E068E400E06CE400E070E400E06E
:102AB00074E400E078E400E07CE400E080E400E01E
:102AC00084E400E088E400E000E100E004E100E0EC
:102AD00008E100E00CE100E010E100E080E100E04E
:102AE00084E100E088E100E08CE100E090E100E0BA
:102AF00000E200E004E200E008E200E00CE200E0B6
:102B000010E200E080E200E084E200E088E200E021
:102B10008CE200E090E200E000688909001C4E0EA3
:102B200040420F0000201C0080841E000080250011
:102B3000999E36000040380000093D0000803E00AC
:102B400000004B00404B4C0000204E00808D5B008D
:102B500000C05D000080700000127A0000007D005F
:102B600080969800001BB7000080BB00C0E8CE0034
:102B7000647ADA000024F4000000FA0080A8120150
:102B8000002D310100366E0140787D0140000000CB
:102B900000000000000100003E00080000000000EE
:102BA00000010000A0000000020000000001000081
:102BB0003454010000000000000100002B700600EA
:102BC00000000000000100002800000000000000DC
:102BD00000010000270001000000000000010000CB
:102BE0002000000000000000000100005000000074
:102BF00002000000000100001AAC0000000000000C
:102C0000000100001794090000000000000100000E
:102C100016980500000000000001000014000000EC
:102C20000000000000010000138008000000000008
:102C300000010000A00000000800000000010000EA
:102C4000100000000000000000010000280000004B
:102C5000020000000001000040000000040000002D
:102C60000001000060000000000000000001000002
:102C70005D000C000000000000010000500000009A
:102C800000000000000100004E00020000000000F3
:102C90000001000041AC0100000000000001000044
:102CA0003C00000000000000000100003A80090024
:102CB00000000000000100003000000000000000E3
:102CC00000010000280000000000000000010000DA
:102CD0002700010000000000000100002360060042
:102CE000000000000001000021600800000000005A
:102CF000000100001E0000000000000000010000B4
:102D00001DC0040000000000000100005000000091
:102D10000200000000010000180000000000000098
:102D2000000100001400000000000000000100008D
:102D30006000000004000000000100000024F40016
:102D400030003000005A6202910091000087930326
:102D5000D200D20000B4C4041301130100E1F50550
:102D600054015401000E27079501950100C0004051
:102D70001500000000D000401600000000E00040F8
:102D80003100000000F000404B0000000000014056
:102D90004C000000001001404D00000000200140E8
:102DA0004E000000003001404F00000000C0004015
:102DB0001500000000D000401600000000E00040B8
:102DC0003100000000F00040480000000000014019
:102DD00049000000001001404A00000000200140AE
:102DE0004B000000003001404C0000003031323315
:102DF0003435363738396162636465660000000037
:102E0000202E0000000000206C060000FC070000DF
:102E1000742E00006C060020D42C0000001C000062
:102E20000130EA010C124412F035C0024002321D9A
:102E30001B03081012703340C014061803BC061C94
:102E400003343938293444D0024032362A0234124D
:102E5000602B4060341B140238FA0234014403161C
:102E6000F8271AAA0101FF01FF01FF01FF01FF017D
:042E700069000000F5
:04000005000002896C
:00000001FF
