:020000040000FA
:10000000503200206D0200008102000083020000D7
:10001000850200008502000085020000000000004B
:10002000000000000000000000000000A502000029
:100030008502000000000000F902000021200000FD
:100040008502000085020000850200008502000094
:100050008502000085020000850200008502000084
:100060008502000085020000850200008502000074
:100070008502000085020000850200008502000064
:100080008502000085020000850200008502000054
:100090008502000085020000850200008502000044
:1000A0008502000085020000850200008502000034
:1000B0008502000085020000850200008502000024
:1000C0008502000085020000850200008502000014
:1000D0008502000085020000850200008502000004
:1000E0008502000000000000000000008502000002
:1000F00085020000850200008502000085020000E4
:1001000085020000850200008502000085020000D3
:1001100000000000000000008502000085020000D1
:1001200085020000850200008502000085020000B3
:1001300085020000850200008502000085020000A3
:1001400000000000000000000000000000000000AF
:100150008502000085020000850200008502000083
:10016000000000000000000000000000000000008F
:10017000000000000000000000000000000000007F
:10018000000000000000000000000000000000006F
:10019000000000000000000000000000000000005F
:1001A000000000000000000000000000000000004F
:1001B0008502000085020000850200008502000023
:1001C0008502000085020000850200008502000013
:1001D0008502000085020000850200008502000003
:1001E000850200008502000085020000000000007A
:1001F000000000008502000085020000850200006A
:1002000085020000850200000000000000000000E0
:1002100085020000850200008502000085020000C2
:1002200085020000850200008502000085020000B2
:1002300085020000850200008502000085020000A2
:100240008502000085020000850200008502000092
:100250008502000085020000850200008502000082
:100260008502000085020000850200004EF68850DD
:10027000CEF20000016841F47001016000F004B8A2
:10028000FEE7FEE7FEE70000DFF80CD000F0A4FA7E
:10029000004800478D170000503200200138FDD182
:1002A000704700002A4B19680868B0E8F04F80F3E7
:1002B0000988BFF36F8F4FF0000080F311887047FB
:1002C0000000000006480068006880F3088862B6F5
:1002D00061B6BFF34F8FBFF36F8F00DF00BF00BF6A
:1002E00008ED00E0DFF80C00016841F470010160E6
:1002F000704700BF88ED00E0EFF30980BFF36F8F18
:10030000134B1A681EF0100F08BF20ED108A20E969
:10031000F04F106008B44FF0A00080F31188BFF3D5
:100320004F8FBFF36F8F01F023FE4FF0000080F37B
:10033000118808BC19680868B0E8F04F1EF0100F6B
:1003400008BFB0EC108A80F30988BFF36F8F704745
:10035000B0000020EFF305807047D2B201E000F852
:10036000012B491EFBD270470022F6E710B5134659
:100370000A4604461946FFF7F0FF204610BD2DE956
:10038000FE4F804681EA0300C00F0C46009021F02A
:10039000004123F00045B8EB0200A94105D24046D8
:1003A000214690461C460B46024623F0004010436F
:1003B00047D0270DC7F30A00C3F30A510290401A31
:1003C000019040286BDAC3F3130040F4801B0098BF
:1003D000924620B10023D2EB030A63EB0B0B01988A
:1003E0005946C0F14002504600F030F906460D462D
:1003F00050465946019A00F048F910EB0800614157
:10040000002487EA115284EAE7731A4340D0009A25
:1004100062B3019A012A4FEA075215DC001B61EB17
:1004200002014FF0004202EA0752CDE90042001CEF
:1004300041F5801132462B4600F07FF903B0BDE84C
:10044000F08F40462146F9E7001B61EB0201001CDA
:1004500041F5801300185B412018A2F5001747EB07
:10046000030140EAD570B6196D4111E06D084FEAFD
:10047000360645EAC0754FEA0752001B61EB0201E0
:10048000001C41F5801149084FEA30000019514124
:1004900032462B4603B0BDE8F04F00F03FB900985C
:1004A000012240000023D0EB020263EBE0730098CE
:1004B00021464FEAE074B8EB000061EB0401E9E784
:1004C00083F000435BE781F0004158E72DE9FE4FE0
:1004D00081EA030404F0004421F0004100944FF04D
:1004E000000B23F0004350EA01045ED052EA0304FB
:1004F0005BD0C3F30A54C1F30A552C44A4F2F3347D
:100500000194A0FB0254C1F3130141F48011C3F321
:10051000130343F4801301FB024400FB034E840ADF
:10052000970A44EA815447EA8357A4FB0768029577
:100530008D0A05FB07854FEA932C04FB0C54270515
:10054000029D4FEA065847EA1637B5EB08056EEBF1
:10055000070C870E920E47EA811742EA8312A7FB27
:100560000201B6EB0B0164EB00042B0D43EA0C33E4
:100570005E1844EB1C50DA465146E7FB0201C5F316
:1005800013044FEA0B3343EA14534FEA0432019C3D
:1005900043EA0603A4F10C040294009CCDE900B4E4
:1005A00000F0CBF803B0BDE8F08F00200146F9E77A
:1005B00070B5C1F30A5201F000450024C1F31301E4
:1005C00040F2FF3341F480119A4201DA002070BDFD
:1005D00040F233439A42A2F2334203DC524200F02B
:1005E00044F800E090402C43F1D0404270BD00F050
:1005F000004230F000400AD0C10D01F56071C0F337
:10060000160042EA0151C20840071143704700201A
:100610000146704701F0004330B421F0004150EA38
:10062000010206D00A0DA2F56072C1F31301002A7F
:1006300002DC30BC00207047440F44EAC104C10012
:10064000E01830BC00EBC25000F031B8202A04DBC7
:10065000203A00FA02F1002070479140C2F12003D5
:1006600020FA03F3194390407047202A04DB203A14
:1006700021FA02F00021704721FA02F3D040C2F1C2
:1006800020029140084319467047202A06DBCB1709
:10069000203A41FA02F043EAE07306E041FA02F33D
:1006A000D040C2F12002914008431946704700290A
:1006B000A8BF7047401C490008BF20F001007047E8
:1006C00010B4B0FA80FC00FA0CF050EA010404BF48
:1006D00010BC704749B1CCF1200421FA04F411FA9E
:1006E0000CF118BF012121430843A3EB0C01CB1DE2
:1006F0004FEA00614FEA102042BF002010BC704753
:1007000000EBC35010440029A4BF10BC7047401C2C
:10071000490008BF20F0010010BC704710B5141E3E
:1007200073F1000408DA401C41F1000192185B41AA
:100730001A4301D120F0010010BD2DE9F04D924681
:100740009B4611B1B1FA81F202E0B0FA80F2203298
:100750009046FFF77BFF04460F4640EA0A0041EA55
:100760000B0153465A46084313D0114653EA010081
:1007700019D0C8F140025046FFF777FF05460E46F4
:10078000504659464246FFF761FF084305D0012015
:1007900004E020463946BDE8F08D0020054346EAD6
:1007A000E0762C4337430A986305E40AA0EB08007F
:1007B0000022FD0A44EA47540A3002D500200146CF
:1007C000E9E7010510196941DDE9084500196941AA
:1007D000BDE8F04DA2E70000064C074D06E0E068DA
:1007E00040F0010394E8070098471034AC42F6D378
:1007F000FFF74EFDFC2800001C29000070B58C1886
:1008000010F8015B15F0070301D110F8013B2A1124
:1008100006D110F8012B03E010F8016B01F8016B11
:100820005B1EF9D12B0705D40023521E0DD401F80D
:10083000013BFAE710F8013BCB1A921C03E013F8D6
:10084000015B01F8015B521EF9D5A142D8D300200B
:1008500070BD00001CB50020194C009001460190AD
:10086000204600F054F86A460021204600F09AF82D
:100870009DED000AB8EE400A10EE100AFFF7B7FE31
:100880009FED101B53EC112BFFF720FE9FED0F1B6C
:1008900053EC112BFFF714FE9FED0E1B53EC112BA5
:1008A000FFF70EFEFFF784FE0C4900B200284880D7
:1008B00002DA00F5B4704880012008701CBD000009
:1008C00000800340000000000080B63F00000000F0
:1008D000008058400000000000002440300000204C
:1008E000C1F30313C0F8C43F6FF00F0301F00F0111
:1008F00003EB02121143C0F8C81F704700224908D9
:1009000001E04908521C0029FBD102637047012213
:100910008A40C260704701228A40C26081681143E8
:100920008160704770B5154600F0A8FE0446294660
:1009300000F070FA2046BDE8704000F02BBA0A0CB7
:1009400001F00F031204012199400A43816A0A430E
:1009500082627047826B22F003020A43826370470F
:10096000F0B5466989000F258D4002F00F04AE43B3
:1009700004FA01F73E434661066A03F00303AE43FF
:100980008B401E430662A11F03290AD8C369E100F8
:10099000302430398C4002F03002A3438A401343A4
:1009A000C361F0BD00EB41110020403102E08B68D3
:1009B000401C08C2CB68DB0501D40828F7D3704778
:1009C000026801238B401A430260704730B500EB88
:1009D0004110910050F8404F0F228A4003F00F055C
:1009E00094438D402C4304608469C3F303259443EE
:1009F0008D402C4384614468C3F3031594438D40B8
:100A00002C434460C469C3F3035594438D402C4385
:100A1000C46113F4702F4FF001050AD04469944368
:100A2000C3F302428A402243426102698D402A4355
:100A300002E002698D40AA43026130BD10B5264C28
:100A4000204600F0BDFC204600F0CEFC0028FAD085
:100A5000224C204600F0B4FC204600F0C5FC0028E3
:100A6000FAD00C211E4800F024F91E4C01227121FD
:100A70002046FFF735FF00212046FFF76BFF0023DC
:100A80001A4619462046FFF76BFF00231A461946FF
:100A90002046FFF79BFF6123012200212046FFF73C
:100AA00095FF40212046FFF729FF00212046FFF750
:100AB00087FF0D4A00212046FFF734FF0021204622
:100AC000FFF729FF4021172000F092F9BDE8104000
:100AD000172000F05FB90000003800F0040800F0B3
:100AE00000400240008003405508000000210148FA
:100AF000FFF725BF0080034010B54FF08074A06F52
:100B000000688047A06F00698047606CC16D044831
:100B10008847606C016BBDE8104001200847000069
:100B20004005C001D307D0F8003401D00B4300E0EA
:100B30008B43C0F800349207D0F8202401D50A4333
:100B400000E08A43C0F8202470472DE9F0430024D8
:100B50004FF001084FF00309C2F3411C08FA04F5F5
:100B60000D420ED0D0F8C47F650009FA05F6B743F0
:100B7000C0F8C47FD0F8C46F0CFA05F52E43C0F856
:100B8000C46F641CE4B2082CE8D3D407D0F8004545
:100B900001D00C4300E08C43C0F800459407D0F826
:100BA000044501D50C4300E08C43C0F804455407CC
:100BB000D0F8084501D50C4300E08C43C0F8084547
:100BC0001407D0F8184501D50C4300E08C43C0F859
:100BD0001845D206D0F83C2501D50A4300E08A43E7
:100BE000C0F83C25DA07D0F80C2501D00A4300E014
:100BF0008A43C0F80C259A07D0F8102501D50A437E
:100C000000E08A43C0F810255A07D0F8142501D512
:100C10000A4300E08A43C0F814251A07D0F81C25BF
:100C200001D50A4300E08A43C0F81C259A05D0F894
:100C3000442501D50A4300E08A43C0F84425D0F892
:100C4000402513F4407F01D00A4300E08A43C0F8F6
:100C50004025D0F8282523B18A43C0F82825BDE8CF
:100C6000F0830A43F9E700000E4A10B5D36EC0F3D3
:100C7000074101228A4013420B4A03D002EBC10113
:100C8000496801E052F83110020AD1F82C350F24DE
:100C9000944000F00F00A34390400343C1F82C356B
:100CA00010BD000000E00F40F824000050F82100C3
:100CB000704730B50C4605460022FFF733FF21464A
:100CC0002846BDE8304000230122FFF73EBF30B583
:100CD0000C4605460022FFF725FF21462846BDE8C1
:100CE000304008230122FFF730BF30B50C460546DF
:100CF0000222FFF717FF21462846BDE830400823AF
:100D00000122FFF722BF30B50C4605460222FFF74D
:100D100009FF21462846BDE830400A230122FFF79B
:100D200014BF30B50C4605460222FFF7FBFE2146F4
:100D30002846BDE8304008230122FFF706BF40F8EF
:100D40002120704710B50F4800F03AFB0120FFF753
:100D50008BFF40F20140FFF787FF0B4800F030FBAC
:100D600005210A4800F056FB03214FF04020FFF711
:100D7000D8FFBDE81040064A4FF4E131002000F0F2
:100D80004DBB0000000800F0001800F000C000405B
:100D90000024F4001449042812D0052814D0062891
:100DA00017D00F2819D0102809D3103800F01F02CF
:100DB000012191400D4A400952F82000016070471E
:100DC000086840F4803002E0086840F400300860B1
:100DD0007047086840F48020F9E74FF0E02001698F
:100DE00041F002010161704724ED00E0442600005B
:100DF000074A10B520F00303D25813688007C00ECD
:100E0000FF248440A34381401943116010BD0000BA
:100E1000A825000070B5094D2A68094CA24209D0E6
:100E20002B68002253F8226044F82260521C9B2A4F
:100E3000F8D32C6044F8201070BD000008ED00E0ED
:100E40000004002010B50B4C204600F0B9FA2046F3
:100E500000F0CAFA0028FAD0074C10212046FFF70C
:100E600036FF20460A230122BDE810401021FFF77B
:100E70006CBE0000050800F00050024010B54FF0B5
:100E80008074606C816904488847206A0E21C26BB7
:100E9000BDE8104001481047050800F0005002402E
:100EA00070B500EE101A00EE900A244CB8EE400A1D
:100EB000F8EE600A2DED028B214D30EEC08A84ECF5
:100EC000020A84ED028AA868FFF791FB9FED1D1BC3
:100ED00053EC112BFFF7FAFAFFF79CFB064618EECE
:100EE000100AFFF784FB9FED191B53EC112BFFF742
:100EF000EDFA41EC180B3046FFF779FB53EC182B59
:100F0000FFF73DFAFFF786FB00EE900AC5ED020AF7
:100F100095ED030A30EEC00A84ED050AC5ED030A1B
:100F200094ED081A21EE000A94ED061A01EE200A4B
:100F300084ED090ABDEC028B70BD00009406002010
:100F4000200000209A9999999999E93F9A9999993D
:100F50009999C93F0C489FED0B0A80ED000A80ED7E
:100F6000010A80ED020A80ED030A80ED040A80ED9B
:100F7000050A80ED060A80ED070A80ED080A80ED7B
:100F8000090A70470000000094060020002801DBD9
:100F9000012070470020704708440168074B194042
:100FA00011430160910703D5B0210162090103E0FB
:100FB0008C21016240F60C01416270470100F8FF8C
:100FC000425842F0010242507047084401688907C4
:100FD00002D5510801617047521E0261704700003E
:100FE00070B540F6C411884202DC4942884201DAF9
:100FF000084601E000B901200446FFF7C7FF0D4D88
:1010000030B122464021284600F01EF801220AE0B5
:101010002046FFF7BBFF00280BD1012240212846C4
:1010200000F012F862422846BDE87040412100F00D
:101030000BB870BD00800240002A826801D00A43CC
:1010400000E08A438260704721F03F031844036840
:101050009B0700D5520803699A1AC90701D0C261DB
:10106000704782617047000070B54FF4801000F047
:101070009DF9274C204600F0A3F9601C00F0A0F970
:10108000204600F0B1F90028FAD0224800F098F983
:101090002148FFF7E9FD2148FFF7E6FDC021204880
:1010A000FFF723FE1F4C022240212046FFF774FF6A
:1010B000022280212046FFF76FFF40F6C4152A4622
:1010C00040212046FFF781FF2A4680212046FFF776
:1010D0007CFF012211462046FFF7AEFF01220221CC
:1010E0002046FFF7A9FF40212046FFF769FF802136
:1010F0002046FFF765FF012240212046FFF7A4FFAD
:101100002046BDE8704001224121FFF79DBF00004D
:10111000004000F0010800F004180100041C010068
:101120000050004000800240002000F03DBC0368F9
:1011300023F01E030B430360C260704740688007C2
:1011400002D54FF0FF30704701207047016841F031
:1011500001010160704781627047026A0A430262BE
:10116000704770B50D4600F0B1FA04462946FFF706
:1011700051FE2046BDE87040FFF70CBE09B1806A01
:101180007047406A704780687047036823F4E073D3
:101190000B430360521E02617047016841F0200159
:1011A00001607047C0697047014800F003B8000053
:1011B0004000002010B50446006800F001F92068E6
:1011C00000F012F90028FAD0206900F0F9F820693F
:1011D00000F00AF90028FAD02149606988420CD150
:1011E000207E000609D520481E490160011D0A68BD
:1011F00042F080020A6000210160E069FFF734FDDF
:10120000206AFFF731FD217E6069FFF77CFDA06851
:1012100040F2176240F008016068FFF788FF6068DD
:10122000FFF794FF00F024F84FF47A71B0FBF1F06F
:1012300000EB8000420000216068FFF7A6FF6068B5
:10124000FFF7ABFF09496068FFF78BFF0621606875
:10125000FFF783FFE068BDE81040FFF79BBD00008B
:10126000007000404B434F4C207500402911000096
:10127000F0B5454E326E316F002902DA01F0700090
:1012800001E002F03000202812D003DC40B1102829
:1012900004D10BE030280DD070280ED00020F0BD16
:1012A0007C203A4B00EA1210185808E0384806E053
:1012B000384804E047F2305001E04FF400404FF06E
:1012C000FF33002901DA0C0505D501F0004402F4D2
:1012D00000652C4336D1D6F86041D6F8645105F04C
:1012E0001F07C5F304256D1C7F1C17FB05F56D005A
:1012F000B0FBF5F0C4F309054543C4F3892460430A
:10130000346905EB902042F4800204F47044B4F593
:10131000804F12D006DCB4F5005F0AD0B4F5405F10
:1013200010D108E0B4F5E04F09D0B4F5104F09D161
:1013300007E0194B06E0194B04E0194B02E0194B8A
:1013400000E0194B540217D5002919DA4C0007D5D3
:101350000C050BD501F0004402F40062144305D0E3
:10136000C1F3C551491CB0FBF1F005E04200C1F3E7
:101370008650401CB2FBF0F0834290D21846F0BD7C
:10138000C2F3C351EEE7000000E00F409C260000CE
:101390000024F40000093D0000B4C40480F0FA0207
:1013A000005A620240787D01002D310103490A6E26
:1013B00022F4F01202430A667047000000E00F407A
:1013C000C0F307230749C0B2194401F07043C1F3C9
:1013D000130143EA411141EA800040F0007001220C
:1013E0000260704700E60F40C0F307220849C0B210
:1013F000114401F07042C1F3130142EA411141EA84
:10140000800040F000700068002800D00120704784
:1014100000EA0F40C0F8C81F704700002DE9F047F0
:101420004FF080758946696C114F044609699046F2
:1014300057F824008847002817D0A7F10C000D4E5C
:1014400050F824007060696C57F824008969884757
:10145000686960234A46446941467068A0476869E4
:10146000C1697068BDE8F0470847BDE8F087000033
:1014700054230000A80000200FB410B503A902985F
:1014800000F004F810BC5DF814FB00002DE9F04FEB
:1014900085B00E4605464FF02D0B0DF1040AC0E055
:1014A000002400E0641C285D252801D00028F9D123
:1014B0002146284600F0C4F825442878252873D111
:1014C000002420276D1C15F8010B38282CD014DCC3
:1014D000332829D008DC252867D0302824D03128AB
:1014E00022D032281DD11FE034281DD035281BD032
:1014F000362819D0372814D116E0692825D008DC01
:10150000392811D0582846D0632819D0642808D12A
:101510001BE070283FD0732823D0752836D0782858
:1015200039D0052142A07AE015F8010C302801D10C
:1015300004B9302704EB8401490030394418C2E76C
:1015400001CE00900121684669E001CE00210090A3
:10155000002803DA40420123009000E000230A2221
:101560001EE001CE002700E07F1CC15D0029FBD1F9
:10157000394600F065F8BC4253D9E41B03E0012171
:101580002DA000F05DF8641E4BD3F8E701CE0021DA
:101590000A22009003E001CE0021102200900023D7
:1015A0000120DDF8009003E03BE036E06046641E79
:1015B00000FB02FCCC4503D8BCFBF2F88045F5D01B
:1015C00033B1641E302F03D10AF801B00023491C47
:1015D000A4F1020CBCF10E0F07D2641E05D0D44654
:1015E0000CF80170491C641EFAD113B10AF801B05D
:1015F000491C124F544670B1B9FBF0F3B3FBF2FC37
:1016000002FB1C33D7F800C0B0FBF2F01CF803302B
:101610006354491CEFE701A801E00121681E00F0B6
:101620000FF8287800287FF43BAF05B0BDE8F08FB5
:101630004552524F52000000200000004423000099
:101640002DE9F0418846054600244FF080760A4F88
:101650000DE0285D0A2804D170690D2102687868C0
:1016600090477069295D026878689047641C44451A
:10167000EFD32046BDE8F081A8000020F0B50E4C65
:1016800023680E4D0E4F2B400E4E01F11E02BB4241
:1016900006D1B04201D11046F0BD01F14000F0BDCD
:1016A0002368094C2B40A34204D1B042F3D001F18E
:1016B0003E00F0BD0020F0BD00E00F400000FF70D4
:1016C000000005100080034000000A1030B50B4AEE
:1016D00013680B490B4D0B400B4CAB4205D1A0429C
:1016E00001D11D2030BD362030BD12680A400749A7
:1016F0008A4201D1A042F4D0002030BD00E00F406A
:101700000000FF700000051000C0024000000A1039
:1017100002E008C8121F08C1002AFAD170477047BA
:10172000002001E001C1121F002AFBD17047000018
:1017300070B5144D10212846FFF7B8FA124C2070EE
:10174000C0061ED4FFF794FD40F6B831B0FBF1F0AF
:1017500000EB80008000FEF7A1FD10212846FFF776
:10176000A5FA2070C0060CD46068401C6060032895
:1017700001DD0020606010212846FFF797FA00285D
:10178000F9D070BD00500240340000201FB5FFF7B3
:10179000B3F9FFF773FBFFF751F9FFF7D3FAFFF740
:1017A00051FBFFF761FCFFF7FFFCFFF7D3FB0AA03B
:1017B000FFF762FE0122002000920E49CDE90110E0
:1017C0000346039080220CA10E4800F03FFC00F07D
:1017D0009DFB04B0002010BD0A0A5468697320699B
:1017E00073206120616463206578616D706C652190
:1017F0000A0A00000000002073746172745F746153
:10180000736B0000091A000070B50B4D0446286880
:101810004460E8682968844205D2686BBDE870407E
:10182000091D00F090BA286B091D00F08CFAA86A17
:10183000844200D2AC6270BDB000002070B5134E7F
:10184000134D1FE000F08CFB306820B1002400F045
:1018500021FDBCB901E00124F9E700F099FAF06834
:10186000C468201D00F04EFAA868401EA860686891
:10187000401E686000F09AFA206B00F0A1FA204642
:1018800000F09EFA68680028DCD170BD24080020B2
:10189000B0000020FFF7D2FFFCE700000648016B14
:1018A000096829B1016BC968C968496881627047D4
:1018B0004FF0FF31FAE70000B0000020A02080F3D5
:1018C0001188BFF34F8FBFF36F8FFEE72DE9F04113
:1018D0000446002500F044FB274E06F1080170681D
:1018E00001F1080368B92548002720F00700C1E985
:1018F000000742F2F872C3E90072C0E90032012029
:1019000070603CB10834600704D004F00700C0F1F7
:1019100008000444601E42F2F772904227D2164A31
:101920000968083201E00A4601464868A04202D22E
:1019300008680028F7D1994219D015680868106026
:1019400048680835001B10280DD90B1958600A4843
:101950004C6008305C6800E0104602685768A74297
:10196000FAD31A60036048683168081A306000F0E2
:1019700091FC2846BDE8F081E800002054080020D2
:1019800010B5031F4FF080741C601B1F1960191FD6
:10199000044B0B6014390A60091F6FF002024438CF
:1019A0000A6010BDBD18000070B500EB800101EBAE
:1019B000C001144800EB810401216068FFF7DEFBE1
:1019C000054629466068FFF7C6FBA80708D560688A
:1019D000FFF7E8FB06466068FFF7B0FB4643A662E8
:1019E000680702D5606A40426062064D2D1F287864
:1019F000002805D06068FFF7C6FBE0620020287071
:101A000070BD0000400000201FB500F0C1F90421A6
:101A1000002400912948CDE901042346802228A111
:101A20002A48039400F012FB244805210091001D70
:101A3000CDE901040023802225A12848039400F069
:101A400005FB1E4803210091001FCDE9010400237E
:101A5000802223A12548039400F0F8FA17480621B4
:101A600000910830CDE901040023802220A1234801
:101A7000039400F0EBFA1148072100910C30CDE9F6
:101A80000104002380221EA12048039400F0DEFA06
:101A90000A48082100911030CDE90104002380227A
:101AA0001BA11E48039400F0D1FA044808380068CE
:101AB00000F0E4F9BDE81F4000F078B9080000200C
:101AC0007461736B5F626C696E6B7900551B00000B
:101AD0007461736B5F61646300000000211B000090
:101AE0007461736B5F6B657900000000091C000076
:101AF0007461736B5F70776D00000000A91C0000BB
:101B00007461736B5F71656900000000C51C0000A3
:101B10007461736B5F6D61696E000000211C0000D1
:101B200008B500F057FB074C0090FEF7DFFFB4F953
:101B3000001005A0FFF7A0FC0A21684600F066F936
:101B4000F3E7000032000020BDC7B6C8A3BA2025C5
:101B5000640D0A0008B500F03DFB294D294C0090AA
:101B6000296831B1012912D0022925D003291ED1BB
:101B700030E002212046FFF799F8C0F10200C2B21E
:101B800002212046FFF7DBF800220C210CE00421A3
:101B90002046FFF78BF8C0F10400C2B204212046B2
:101BA000FFF7CDF800220A212046FFF7C8F864218C
:101BB000684600F02BF9D3E708212046FFF776F8B6
:101BC000C0F10800C2B208212046FFF7B8F8002291
:101BD0000621E9E702212046FFF768F8C0F1020676
:101BE00004212046FFF762F8C0F104000643F2B278
:101BF00006212046FFF7A3F800220821D4E70000C1
:101C0000380000200050024008B500F0E3FA0090D0
:101C1000FFF78EFD0A21684600F0F8F8F8E70000AB
:101C200008B500F0D7FA0D4D0D4E0E4C0090286807
:101C300000280DD83088002180B2FFF731F9BDEEC1
:101C4000C00A10EE100A01B2218007A0FFF714FCB1
:101C50000A21684600F0DAF8E9E7000038000020C1
:101C6000320000201C0000202020202020202020E6
:101C70002020202020202020202020202020202064
:101C80002020202020202020202020202020202054
:101C900020202020202020202020706964A3BA2545
:101CA0006420200D0A00000008B500F093FA4FF4FC
:101CB000FA6400902046FFF793F90A21684600F085
:101CC000A5F8F7E708B500F085FA054C009005A0E7
:101CD000A16AFFF7D1FB0A21684600F097F8F6E702
:101CE0004000002020202020202020202020202014
:101CF00020202020202020CBD9B6C8A3BA256420DC
:101D0000200D0A00D0E9013201699A60D0E901236F
:101D10005A604A68824201D182684A6000220261A8
:101D20000868401E08607047FEE700F108014FF0A8
:101D3000FF32C0E90112C1600161002101607047FA
:101D400000210161704730B50C68621C02D000F1BF
:101D5000080202E0026904E01A4653681D68A542C1
:101D6000FAD953684B6099608A60516008610168D4
:101D7000491C016030BD42684A6093688B6093687B
:101D80005960916008610168491C0160704700005A
:101D9000A02080F31188BFF34F8FBFF36F8F0248ED
:101DA0000168491C01607047000100200349086870
:101DB000401E086001D180F31188704700010020A7
:101DC00010B5002817D0A0F1080400F0C9F80A499E
:101DD000606800E011460A6853688342FAD30648F7
:101DE00022600C6008386168026811440160BDE837
:101DF000104000F04FBA10BDF00000204FF0E0207E
:101E00004CF24F31416107210161704770B50C46BA
:101E10000646002200F0A4F8164DE86833681C441A
:101E2000834202D9A34202D804E0A34201D88442EB
:101E300000D9012234607AB12868001DFFF762FFE3
:101E400038B9286890F82C1001208840296981430E
:101E500029612046FFF7D8FC00F01CFA002807D1C2
:101E600005494FF080500860BFF34F8FBFF36F8F6D
:101E700070BD0000B000002004ED00E070B5044625
:101E8000FFF786FF1D4D04B92C68201DFFF73AFFB0
:101E900058B9E06A1A4A00EB800152F8211021B9C2
:101EA00001218140286988432861A06A18B104F1A2
:101EB0001800FFF727FF211D1248FFF75CFF686835
:101EC000401C6860686A401C6862FFF76FFF6869C1
:101ED00000280AD02868844208D10B494FF080506E
:101EE0000860BFF34F8FBFF36F8F70BDFFF750FFD8
:101EF000FFF7D4FCBDE87040FFF758BFB0000020EA
:101F0000BC0600202408002004ED00E01FB50024DA
:101F10000094019402942346C8220DA10E48039414
:101F200000F094F8012811D1A02080F31188BFF3AC
:101F30004F8FBFF36F8F09484FF0FF31816201214E
:101F40004161C460BDE81F4000F04AB81FBD0000F9
:101F500049444C450000000095180000B0000020E6
:101F60000248C16A491CC16270470000B0000020ED
:101F700010B5194CE06A10B10120E06110BD0020DD
:101F8000E06120684FF0A532006B0168914208D1F2
:101F90004168914205D18168914202D1C068904266
:101FA00004D0216820683431FFF7BEFE20690B4958
:101FB000B0FA80F0C0F11F0000EB800001EB800060
:101FC00000F10802416849684160914201D14968C5
:101FD0004160C868206010BDB0000020BC06002031
:101FE0000C4810B5016841F460010160016841F0DE
:101FF00060410160FFF702FF074900200860FEF71B
:1020000071F90648016841F040410160FEF75AF954
:10201000002010BD20ED00E00001002034EF00E0C2
:1020200010B5A02080F31188BFF34F8FBFF36F8FDF
:1020300000F0D6F818B104494FF080500860002035
:1020400080F3118810BD000004ED00E02DE9FF5F72
:102050008A46DDE90F9091000E9E9B461546884604
:1020600010B90846FFF732FC07000FD06820FFF7D1
:102070002DFC040006D0A522414638462763FEF712
:102080006CF904E03846FFF79BFE00E00024002CCA
:102090007ED06FF0030000EB8500216B35460844CD
:1020A00020F007085146002022180B5C82F83430DB
:1020B0000A5C12B1401C1928F6D3002784F84C7032
:1020C0000F2D00D30E25E562C4E91657201DFFF73A
:1020D00037FE04F11800FFF733FE2461C5F10F014C
:1020E0006462A161276684F864705A46404600998C
:1020F000FFF746FC2060B9F1000F01D0C9F800409D
:10210000FFF746FE2F4FB868401CB8603868DFF80C
:10211000B88010B1786930B32AE03C60B868012813
:1021200026D1002505EB850108EB8100FFF7FDFDB9
:102130006D1C0F2DF6D32548FFF7F7FD234814300B
:10214000FFF7F3FD21482830FFF7EFFD1F483C3033
:10215000FFF7EBFD1D485030FFF7E7FD1B483863E4
:102160001430786304E03868C06AB04200D83C603C
:10217000786A0121401C78622065E06A3A698140F2
:102180001143396100EB800108EB8100211D00E063
:1021900015E0FFF7F0FD0124FFF708FE786950B164
:1021A0003868C06AB04206D2094920070860BFF308
:1021B0004F8FBFF36F8F04B02046BDE8F09F4FF004
:1021C000FF34F8E7B0000020BC060020E80700203C
:1021D00004ED00E00148C06870470000B000002036
:1021E0002DE9F041294F0025F86A40B1B869401C3B
:1021F000B861F86900B101252846BDE8F081F868AA
:10220000401CF860FE6846B9386B796B39637863B7
:10221000386A401C3862FFF741FBB86ADFF870800B
:10222000864209D3386B006880B1386BC068C468D7
:10223000606886420DD2B8623868C06A00EB8001DF
:1022400058F821000128D4D90125D2E74FF0FF30FA
:10225000F1E7201DFFF756FDA06A18B104F1180040
:10226000FFF750FDE06A01213A698140114339616D
:1022700000EB800108EB8100211DFFF77CFDE06A87
:102280003968C96A8842CDD30125CBE7B000002068
:10229000BC0600202DE9F0470027FFF779FD264D09
:1022A000E86A401EE862E86AF0BBA8682349012694
:1022B000D0B3A1F5AA798846D8F80010E9B1D8F8CA
:1022C0000C00C46804F11800FFF71CFD201DFFF787
:1022D00019FDE06A2A6906FA00F11143296100EB51
:1022E000800109EB8100211DFFF745FDE06A2968A7
:1022F000C96A8842E0D3EE61DEE7A86938B909E02F
:10230000FFF76EFF00B1EE61A869401EA861A869E1
:102310000028F5D1E869012809D1094901270007FA
:102320000860BFF34F8F00E001E0BFF36F8FFFF74E
:102330003DFD3846BDE8F087B000002010080020C1
:1023400004ED00E0E828000000C0004000D000409C
:1023500000E00040001800F0011800F0021800F042
:102360000040004010000000008005401000000008
:1023700000500040110000000090054011000000D6
:10238000006000401200000000A0054012000000A4
:10239000007000401300000000B005401300000072
:1023A000004002401400000000C00540140000007E
:1023B000005002402E00000000D005402E0000001A
:1023C000006002402F00000000E005402F000000E8
:1023D000007002403000000000F0054030000000B6
:1023E00000D0034046000000000006404600000008
:1023F0000010064047000000002006404800000092
:10240000003006407F0000000040064080000000D1
:102410000050064084000000006006408C00000070
:102420000040004010000000008005401000000047
:102430000050004011000000009005401100000015
:10244000006000401200000000A0054012000000E3
:10245000007000401300000000B0054013000000B1
:10246000004002401400000000C0054014000000BD
:10247000005002402E00000000D005402E00000059
:10248000006002402F00000000E005402F00000027
:10249000007002403000000000F0054030000000F5
:1024A00000D003404300000000000640430000004D
:1024B00000100640440000000020064045000000D7
:1024C000003006405800000000400640590000005F
:1024D000005006405C000000006006406400000000
:1024E000007006406C000000008006406D00000097
:1024F000009006407F000000004000400080054042
:1025000000500040009005400060004000A00540E1
:102510000070004000B005400040024000C005408F
:102520000050024000D005400060024000E005403D
:102530000070024000F0054000D00340000006405B
:102540000010064000100640002006400020064013
:102550000030064000300640004006400040064083
:1025600000500640005006400060064000600640F3
:102570000070064000700640008006400080064063
:102580000090064000900640000700000006000092
:10259000000500000004000000030000000200002D
:1025A00000010000000000000000000018ED00E045
:1025B0001CED00E020ED00E000E400E004E400E0B9
:1025C00008E400E00CE400E010E400E014E400E0C3
:1025D00018E400E01CE400E020E400E024E400E073
:1025E00028E400E02CE400E030E400E034E400E023
:1025F00038E400E03CE400E040E400E044E400E0D3
:1026000048E400E04CE400E050E400E054E400E082
:1026100058E400E05CE400E060E400E064E400E032
:1026200068E400E06CE400E070E400E074E400E0E2
:1026300078E400E07CE400E080E400E084E400E092
:1026400088E400E000E100E004E100E008E100E0EF
:102650000CE100E010E100E080E100E084E100E056
:1026600088E100E08CE100E090E100E000E200E0C1
:1026700004E200E008E200E00CE200E010E200E02A
:1026800080E200E084E200E088E200E08CE200E02A
:1026900090E200E000688909001C4E0E40420F00E5
:1026A00000201C0080841E0000802500999E3600BA
:1026B0000040380000093D0000803E0000004B0053
:1026C000404B4C0000204E00808D5B0000C05D0040
:1026D0000080700000127A0000007D008096980053
:1026E000001BB7000080BB00C0E8CE00647ADA00AF
:1026F0000024F4000000FA0080A81201002D31012E
:1027000000366E0140787D014000000000000000AE
:10271000000100003E000800000000000001000071
:10272000A00000000200000000010000345401007D
:1027300000000000000100002B70060000000000F7
:10274000000100002800000000000000000100005F
:102750002700010000000000000100002000000030
:102760000000000000010000500000000200000016
:10277000000100001AAC0000000000000001000091
:1027800017940900000000000001000016980500E1
:102790000000000000010000140000000000000024
:1027A000000100001380080000000000000100008C
:1027B000A000000008000000000100001000000060
:1027C00000000000000100002800000002000000DE
:1027D00000010000400000000400000000010000B3
:1027E0006000000000000000000100005D000C001F
:1027F0000000000000010000500000000000000088
:10280000000100004E000200000000000001000076
:1028100041AC010000000000000100003C0000008D
:1028200000000000000100003A80090000000000E4
:102830000001000030000000000000000001000066
:102840002800000000000000000100002700010037
:1028500000000000000100002360060000000000EE
:1028600000010000216008000000000000010000DD
:102870001E00000000000000000100001DC0040058
:1028800000000000000100005000000002000000F5
:10289000000100001800000000000000000100001E
:1028A00014000000000000000001000060000000B3
:1028B00004000000000100000024F400300030009B
:1028C000005A62029100910000879303D200D20067
:1028D00000B4C4041301130100E1F50554015401CF
:1028E000000E2707950195013031323334353637E4
:1028F0003839616263646566000000001C290000CD
:10290000000000206C060000FC0700007029000099
:102910006C060020E42B0000201700000130EA01C3
:102920000C124412F035C0024002321D1B03081085
:1029300012703340C014061803BC061C0334393827
:10294000293444D0024032362A023412602B4060CF
:10295000341B140238FA023401400316F8271AAA6D
:102960000101FF01FF01FF01FF01FF016D000000F8
:04000005000002896C
:00000001FF
